{
  "transactions": [
    {
      "hash": "0xbf1c6c12bba8e20020240092a499bd6a8709b0491517945ca2eb4620fe8d7bc3",
      "transactionType": "CALL",
      "contractName": null,
      "contractAddress": "0x779877a7b0d9e8603169ddbd7836e478b4624789",
      "function": "transferAndCall(address,uint256,bytes)",
      "arguments": [
        "0x9DdfaCa8183c41ad55329BdeeD9F6A8d53168B1B",
        "3000000000000000000",
        "0xc0ddc49b7d8d2867484e1130083c1167aa121721e2b2d87e2aa9c2d7c39de3d4"
      ],
      "transaction": {
        "from": "0xe9576858e09dcfcfa76f244970d010b480366d7f",
        "to": "0x779877a7b0d9e8603169ddbd7836e478b4624789",
        "gas": "0x1c1ff",
        "value": "0x0",
        "input": "0x4000aea00000000000000000000000009ddfaca8183c41ad55329bdeed9f6a8d53168b1b00000000000000000000000000000000000000000000000029a2241af62c000000000000000000000000000000000000000000000000000000000000000000600000000000000000000000000000000000000000000000000000000000000020c0ddc49b7d8d2867484e1130083c1167aa121721e2b2d87e2aa9c2d7c39de3d4",
        "nonce": "0x7",
        "chainId": "0xaa36a7"
      },
      "additionalContracts": [],
      "isFixedGasLimit": false
    }
  ],
  "receipts": [
    {
      "status": "0x1",
      "cumulativeGasUsed": "0x1a46cc3",
      "logs": [
        {
          "address": "0x779877a7b0d9e8603169ddbd7836e478b4624789",
          "topics": [
            "0xddf252ad1be2c89b69c2b068fc378daa952ba7f163c4a11628f55a4df523b3ef",
            "0x000000000000000000000000e9576858e09dcfcfa76f244970d010b480366d7f",
            "0x0000000000000000000000009ddfaca8183c41ad55329bdeed9f6a8d53168b1b"
          ],
          "data": "0x00000000000000000000000000000000000000000000000029a2241af62c0000",
          "blockHash": "0x413193b0f50685dfb429b0cc86776a0d23d046084396db69226cc4d0c4e2dfda",
          "blockNumber": "0x7d70b5",
          "transactionHash": "0xbf1c6c12bba8e20020240092a499bd6a8709b0491517945ca2eb4620fe8d7bc3",
          "transactionIndex": "0xb1",
          "logIndex": "0x159",
          "removed": false
        },
        {
          "address": "0x779877a7b0d9e8603169ddbd7836e478b4624789",
          "topics": [
            "0xe19260aff97b920c7df27010903aeb9c8d2be5d310a2c67824cf3f15396e4c16",
            "0x000000000000000000000000e9576858e09dcfcfa76f244970d010b480366d7f",
            "0x0000000000000000000000009ddfaca8183c41ad55329bdeed9f6a8d53168b1b"
          ],
          "data": "0x00000000000000000000000000000000000000000000000029a2241af62c000000000000000000000000000000000000000000000000000000000000000000400000000000000000000000000000000000000000000000000000000000000020c0ddc49b7d8d2867484e1130083c1167aa121721e2b2d87e2aa9c2d7c39de3d4",
          "blockHash": "0x413193b0f50685dfb429b0cc86776a0d23d046084396db69226cc4d0c4e2dfda",
          "blockNumber": "0x7d70b5",
          "transactionHash": "0xbf1c6c12bba8e20020240092a499bd6a8709b0491517945ca2eb4620fe8d7bc3",
          "transactionIndex": "0xb1",
          "logIndex": "0x15a",
          "removed": false
        },
        {
          "address": "0x9ddfaca8183c41ad55329bdeed9f6a8d53168b1b",
          "topics": [
            "0x1ced9348ff549fceab2ac57cd3a9de38edaaab274b725ee82c23e8fc8c4eec7a",
            "0xc0ddc49b7d8d2867484e1130083c1167aa121721e2b2d87e2aa9c2d7c39de3d4"
          ],
          "data": "0x000000000000000000000000000000000000000000000000000000000000000000000000000000000000000000000000000000000000000029a2241af62c0000",
          "blockHash": "0x413193b0f50685dfb429b0cc86776a0d23d046084396db69226cc4d0c4e2dfda",
          "blockNumber": "0x7d70b5",
          "transactionHash": "0xbf1c6c12bba8e20020240092a499bd6a8709b0491517945ca2eb4620fe8d7bc3",
          "transactionIndex": "0xb1",
          "logIndex": "0x15b",
          "removed": false
        }
      ],
      "logsBloom": "0x00000004000000000082000000000000000000000020000000000000020000000000000000000000000000000000000000000000000000000002000000000000000000000000000000000008000000000000000000000000000020000020000008080000000000000000000000000000000000000000000000000010000040000000000000000000000020010000800000000020000000000000000000000000000000000000000000000000010000000000000000000000000004000000000000000002000000000000800000000000000000000000000100000000000000000010000000000000800000000000000000000000000000000000000000000000",
      "type": "0x2",
      "transactionHash": "0xbf1c6c12bba8e20020240092a499bd6a8709b0491517945ca2eb4620fe8d7bc3",
      "transactionIndex": "0xb1",
      "blockHash": "0x413193b0f50685dfb429b0cc86776a0d23d046084396db69226cc4d0c4e2dfda",
      "blockNumber": "0x7d70b5",
      "gasUsed": "0x133b1",
      "effectiveGasPrice": "0x132068f65c",
      "from": "0xe9576858e09dcfcfa76f244970d010b480366d7f",
      "to": "0x779877a7b0d9e8603169ddbd7836e478b4624789",
      "contractAddress": null
    }
  ],
  "libraries": [],
  "pending": [],
  "returns": {},
  "timestamp": 1745946481,
  "chain": 11155111,
  "commit": "cbc64f8"
}